{
  "contractName": "CrowdFundingProject",
  "abi": [
    {
      "anonymous": false,
      "inputs": [
        {
          "indexed": false,
          "internalType": "uint256",
          "name": "projectId",
          "type": "uint256"
        },
        {
          "indexed": false,
          "internalType": "address",
          "name": "contributor",
          "type": "address"
        },
        {
          "indexed": false,
          "internalType": "uint256",
          "name": "amount",
          "type": "uint256"
        }
      ],
      "name": "Funded",
      "type": "event"
    },
    {
      "anonymous": false,
      "inputs": [
        {
          "indexed": false,
          "internalType": "uint256",
          "name": "projectId",
          "type": "uint256"
        },
        {
          "indexed": false,
          "internalType": "bool",
          "name": "isFunded",
          "type": "bool"
        }
      ],
      "name": "ProjectClosed",
      "type": "event"
    },
    {
      "anonymous": false,
      "inputs": [
        {
          "indexed": false,
          "internalType": "uint256",
          "name": "projectId",
          "type": "uint256"
        },
        {
          "indexed": false,
          "internalType": "string",
          "name": "name",
          "type": "string"
        },
        {
          "indexed": false,
          "internalType": "string",
          "name": "category",
          "type": "string"
        },
        {
          "indexed": false,
          "internalType": "string",
          "name": "description",
          "type": "string"
        },
        {
          "indexed": false,
          "internalType": "string",
          "name": "imageUrl",
          "type": "string"
        },
        {
          "indexed": false,
          "internalType": "address",
          "name": "owner",
          "type": "address"
        },
        {
          "indexed": false,
          "internalType": "uint256",
          "name": "goal",
          "type": "uint256"
        },
        {
          "indexed": false,
          "internalType": "uint256",
          "name": "deadline",
          "type": "uint256"
        }
      ],
      "name": "ProjectCreated",
      "type": "event"
    },
    {
      "inputs": [
        {
          "internalType": "uint256",
          "name": "",
          "type": "uint256"
        },
        {
          "internalType": "address",
          "name": "",
          "type": "address"
        }
      ],
      "name": "contributions",
      "outputs": [
        {
          "internalType": "uint256",
          "name": "",
          "type": "uint256"
        }
      ],
      "stateMutability": "view",
      "type": "function",
      "constant": true
    },
    {
      "inputs": [
        {
          "internalType": "uint256",
          "name": "",
          "type": "uint256"
        }
      ],
      "name": "projects",
      "outputs": [
        {
          "internalType": "string",
          "name": "name",
          "type": "string"
        },
        {
          "internalType": "string",
          "name": "category",
          "type": "string"
        },
        {
          "internalType": "string",
          "name": "description",
          "type": "string"
        },
        {
          "internalType": "string",
          "name": "imageUrl",
          "type": "string"
        },
        {
          "internalType": "address payable",
          "name": "owner",
          "type": "address"
        },
        {
          "internalType": "uint256",
          "name": "goal",
          "type": "uint256"
        },
        {
          "internalType": "uint256",
          "name": "amountRaised",
          "type": "uint256"
        },
        {
          "internalType": "uint256",
          "name": "deadline",
          "type": "uint256"
        },
        {
          "internalType": "bool",
          "name": "isFunded",
          "type": "bool"
        },
        {
          "internalType": "bool",
          "name": "isClosed",
          "type": "bool"
        }
      ],
      "stateMutability": "view",
      "type": "function",
      "constant": true
    },
    {
      "inputs": [
        {
          "internalType": "string",
          "name": "_name",
          "type": "string"
        },
        {
          "internalType": "string",
          "name": "_category",
          "type": "string"
        },
        {
          "internalType": "string",
          "name": "_description",
          "type": "string"
        },
        {
          "internalType": "string",
          "name": "_imageUrl",
          "type": "string"
        },
        {
          "internalType": "uint256",
          "name": "_goal",
          "type": "uint256"
        },
        {
          "internalType": "uint256",
          "name": "_durationInDays",
          "type": "uint256"
        }
      ],
      "name": "createProject",
      "outputs": [],
      "stateMutability": "nonpayable",
      "type": "function"
    },
    {
      "inputs": [
        {
          "internalType": "uint256",
          "name": "_projectId",
          "type": "uint256"
        }
      ],
      "name": "fundProject",
      "outputs": [],
      "stateMutability": "payable",
      "type": "function",
      "payable": true
    },
    {
      "inputs": [
        {
          "internalType": "uint256",
          "name": "_projectId",
          "type": "uint256"
        }
      ],
      "name": "withdrawFunds",
      "outputs": [],
      "stateMutability": "nonpayable",
      "type": "function"
    },
    {
      "inputs": [
        {
          "internalType": "uint256",
          "name": "_projectId",
          "type": "uint256"
        }
      ],
      "name": "getProjectDetails",
      "outputs": [
        {
          "internalType": "string",
          "name": "",
          "type": "string"
        },
        {
          "internalType": "string",
          "name": "",
          "type": "string"
        },
        {
          "internalType": "string",
          "name": "",
          "type": "string"
        },
        {
          "internalType": "string",
          "name": "",
          "type": "string"
        },
        {
          "internalType": "address",
          "name": "",
          "type": "address"
        },
        {
          "internalType": "uint256",
          "name": "",
          "type": "uint256"
        },
        {
          "internalType": "uint256",
          "name": "",
          "type": "uint256"
        },
        {
          "internalType": "uint256",
          "name": "",
          "type": "uint256"
        },
        {
          "internalType": "bool",
          "name": "",
          "type": "bool"
        },
        {
          "internalType": "bool",
          "name": "",
          "type": "bool"
        }
      ],
      "stateMutability": "view",
      "type": "function",
      "constant": true
    },
    {
      "inputs": [
        {
          "internalType": "uint256",
          "name": "_projectId",
          "type": "uint256"
        },
        {
          "internalType": "address",
          "name": "_contributor",
          "type": "address"
        }
      ],
      "name": "getContribution",
      "outputs": [
        {
          "internalType": "uint256",
          "name": "",
          "type": "uint256"
        }
      ],
      "stateMutability": "view",
      "type": "function",
      "constant": true
    }
  ],
  "bytecode": "0x608060405234801561001057600080fd5b50611e89806100206000396000f3fe6080604052600436106100705760003560e01c80633d891f591161004e5780633d891f591461010d5780635f8439e31461014a5780636c563abe14610190578063e081dbf9146101ac57610070565b8063012865a414610075578063107046bd1461009e578063155dd5ee146100e4575b600080fd5b34801561008157600080fd5b5061009c600480360381019061009791906112f2565b6101e9565b005b3480156100aa57600080fd5b506100c560048036038101906100c091906113db565b610497565b6040516100db9a999897969594939291906117b3565b60405180910390f35b3480156100f057600080fd5b5061010b600480360381019061010691906113db565b610755565b005b34801561011957600080fd5b50610134600480360381019061012f9190611404565b6109e9565b6040516101419190611a43565b60405180910390f35b34801561015657600080fd5b50610171600480360381019061016c91906113db565b610a0e565b6040516101879a9998979695949392919061186b565b60405180910390f35b6101aa60048036038101906101a591906113db565b610d6b565b005b3480156101b857600080fd5b506101d360048036038101906101ce9190611404565b61101a565b6040516101e09190611a43565b60405180910390f35b6000821161022c576040517f08c379a000000000000000000000000000000000000000000000000000000000815260040161022390611983565b60405180910390fd5b6000811161026f576040517f08c379a0000000000000000000000000000000000000000000000000000000008152600401610266906119a3565b60405180910390fd5b600062015180826102809190611c2b565b4261028b9190611bd5565b905060006040518061014001604052808981526020018881526020018781526020018681526020013373ffffffffffffffffffffffffffffffffffffffff1681526020018581526020016000815260200183815260200160001515815260200160001515815250908060018154018082558091505060019003906000526020600020906009020160009091909190915060008201518160000190805190602001906103379291906111bd565b5060208201518160010190805190602001906103549291906111bd565b5060408201518160020190805190602001906103719291906111bd565b50606082015181600301908051906020019061038e9291906111bd565b5060808201518160040160006101000a81548173ffffffffffffffffffffffffffffffffffffffff021916908373ffffffffffffffffffffffffffffffffffffffff16021790555060a0820151816005015560c0820151816006015560e082015181600701556101008201518160080160006101000a81548160ff0219169083151502179055506101208201518160080160016101000a81548160ff02191690831515021790555050507f2604464a50fb55287a2c07d8832d33393b50823b5644c75e6c32736d1b662fdf600160008054905061046b9190611c85565b88888888338988604051610486989796959493929190611abe565b60405180910390a150505050505050565b600081815481106104a757600080fd5b90600052602060002090600902016000915090508060000180546104ca90611d55565b80601f01602080910402602001604051908101604052809291908181526020018280546104f690611d55565b80156105435780601f1061051857610100808354040283529160200191610543565b820191906000526020600020905b81548152906001019060200180831161052657829003601f168201915b50505050509080600101805461055890611d55565b80601f016020809104026020016040519081016040528092919081815260200182805461058490611d55565b80156105d15780601f106105a6576101008083540402835291602001916105d1565b820191906000526020600020905b8154815290600101906020018083116105b457829003601f168201915b5050505050908060020180546105e690611d55565b80601f016020809104026020016040519081016040528092919081815260200182805461061290611d55565b801561065f5780601f106106345761010080835404028352916020019161065f565b820191906000526020600020905b81548152906001019060200180831161064257829003601f168201915b50505050509080600301805461067490611d55565b80601f01602080910402602001604051908101604052809291908181526020018280546106a090611d55565b80156106ed5780601f106106c2576101008083540402835291602001916106ed565b820191906000526020600020905b8154815290600101906020018083116106d057829003601f168201915b5050505050908060040160009054906101000a900473ffffffffffffffffffffffffffffffffffffffff16908060050154908060060154908060070154908060080160009054906101000a900460ff16908060080160019054906101000a900460ff1690508a565b8060008181548110610790577f4e487b7100000000000000000000000000000000000000000000000000000000600052603260045260246000fd5b906000526020600020906009020160040160009054906101000a900473ffffffffffffffffffffffffffffffffffffffff1673ffffffffffffffffffffffffffffffffffffffff163373ffffffffffffffffffffffffffffffffffffffff161461082f576040517f08c379a0000000000000000000000000000000000000000000000000000000008152600401610826906119c3565b60405180910390fd5b816000805490508110610877576040517f08c379a000000000000000000000000000000000000000000000000000000000815260040161086e90611a23565b60405180910390fd5b60008084815481106108b2577f4e487b7100000000000000000000000000000000000000000000000000000000600052603260045260246000fd5b906000526020600020906009020190508060080160009054906101000a900460ff16610913576040517f08c379a000000000000000000000000000000000000000000000000000000000815260040161090a90611923565b60405180910390fd5b8060080160019054906101000a900460ff16610964576040517f08c379a000000000000000000000000000000000000000000000000000000000815260040161095b90611963565b60405180910390fd5b600081600601549050600082600601819055508160040160009054906101000a900473ffffffffffffffffffffffffffffffffffffffff1673ffffffffffffffffffffffffffffffffffffffff166108fc829081150290604051600060405180830381858888f193505050501580156109e1573d6000803e3d6000fd5b505050505050565b6001602052816000526040600020602052806000526040600020600091509150505481565b6060806060806000806000806000808a6000805490508110610a65576040517f08c379a0000000000000000000000000000000000000000000000000000000008152600401610a5c90611a23565b60405180910390fd5b6000808d81548110610aa0577f4e487b7100000000000000000000000000000000000000000000000000000000600052603260045260246000fd5b90600052602060002090600902019050806000018160010182600201836003018460040160009054906101000a900473ffffffffffffffffffffffffffffffffffffffff168560050154866006015487600701548860080160009054906101000a900460ff168960080160019054906101000a900460ff16898054610b2490611d55565b80601f0160208091040260200160405190810160405280929190818152602001828054610b5090611d55565b8015610b9d5780601f10610b7257610100808354040283529160200191610b9d565b820191906000526020600020905b815481529060010190602001808311610b8057829003601f168201915b50505050509950888054610bb090611d55565b80601f0160208091040260200160405190810160405280929190818152602001828054610bdc90611d55565b8015610c295780601f10610bfe57610100808354040283529160200191610c29565b820191906000526020600020905b815481529060010190602001808311610c0c57829003601f168201915b50505050509850878054610c3c90611d55565b80601f0160208091040260200160405190810160405280929190818152602001828054610c6890611d55565b8015610cb55780601f10610c8a57610100808354040283529160200191610cb5565b820191906000526020600020905b815481529060010190602001808311610c9857829003601f168201915b50505050509750868054610cc890611d55565b80601f0160208091040260200160405190810160405280929190818152602001828054610cf490611d55565b8015610d415780601f10610d1657610100808354040283529160200191610d41565b820191906000526020600020905b815481529060010190602001808311610d2457829003601f168201915b505050505096509b509b509b509b509b509b509b509b509b509b5050509193959799509193959799565b806000805490508110610db3576040517f08c379a0000000000000000000000000000000000000000000000000000000008152600401610daa90611a23565b60405180910390fd5b8160008181548110610dee577f4e487b7100000000000000000000000000000000000000000000000000000000600052603260045260246000fd5b906000526020600020906009020160080160019054906101000a900460ff1615610e4d576040517f08c379a0000000000000000000000000000000000000000000000000000000008152600401610e4490611a03565b60405180910390fd5b6000808481548110610e88577f4e487b7100000000000000000000000000000000000000000000000000000000600052603260045260246000fd5b9060005260206000209060090201905060003411610edb576040517f08c379a0000000000000000000000000000000000000000000000000000000008152600401610ed2906119e3565b60405180910390fd5b80600701544210610f21576040517f08c379a0000000000000000000000000000000000000000000000000000000008152600401610f1890611943565b60405180910390fd5b34816006016000828254610f359190611bd5565b92505081905550346001600086815260200190815260200160002060003373ffffffffffffffffffffffffffffffffffffffff1673ffffffffffffffffffffffffffffffffffffffff1681526020019081526020016000206000828254610f9c9190611bd5565b925050819055507f38c48552690c96ec2872092ac1db6c19fb59f5a8c5b49bbf41ed4886d0ca6926843334604051610fd693929190611a5e565b60405180910390a180600501548160060154106110145760018160080160006101000a81548160ff021916908315150217905550611013846110be565b5b50505050565b6000826000805490508110611064576040517f08c379a000000000000000000000000000000000000000000000000000000000815260040161105b90611a23565b60405180910390fd5b6001600085815260200190815260200160002060008473ffffffffffffffffffffffffffffffffffffffff1673ffffffffffffffffffffffffffffffffffffffff1681526020019081526020016000205491505092915050565b806000805490508110611106576040517f08c379a00000000000000000000000000000000000000000000000000000000081526004016110fd90611a23565b60405180910390fd5b6000808381548110611141577f4e487b7100000000000000000000000000000000000000000000000000000000600052603260045260246000fd5b9060005260206000209060090201905060018160080160016101000a81548160ff0219169083151502179055507f5e4cce7b51d0127810e5b8c9ba3fa985d15d3fa9282fc8aecab20c8dde2c6aa0838260080160009054906101000a900460ff166040516111b0929190611a95565b60405180910390a1505050565b8280546111c990611d55565b90600052602060002090601f0160209004810192826111eb5760008555611232565b82601f1061120457805160ff1916838001178555611232565b82800160010185558215611232579182015b82811115611231578251825591602001919060010190611216565b5b50905061123f9190611243565b5090565b5b8082111561125c576000816000905550600101611244565b5090565b600061127361126e84611b89565b611b58565b90508281526020810184848401111561128b57600080fd5b611296848285611d13565b509392505050565b6000813590506112ad81611e25565b92915050565b600082601f8301126112c457600080fd5b81356112d4848260208601611260565b91505092915050565b6000813590506112ec81611e3c565b92915050565b60008060008060008060c0878903121561130b57600080fd5b600087013567ffffffffffffffff81111561132557600080fd5b61133189828a016112b3565b965050602087013567ffffffffffffffff81111561134e57600080fd5b61135a89828a016112b3565b955050604087013567ffffffffffffffff81111561137757600080fd5b61138389828a016112b3565b945050606087013567ffffffffffffffff8111156113a057600080fd5b6113ac89828a016112b3565b93505060806113bd89828a016112dd565b92505060a06113ce89828a016112dd565b9150509295509295509295565b6000602082840312156113ed57600080fd5b60006113fb848285016112dd565b91505092915050565b6000806040838503121561141757600080fd5b6000611425858286016112dd565b92505060206114368582860161129e565b9150509250929050565b61144981611ccb565b82525050565b61145881611cb9565b82525050565b61146781611cdd565b82525050565b600061147882611bb9565b6114828185611bc4565b9350611492818560208601611d22565b61149b81611e14565b840191505092915050565b60006114b3601983611bc4565b91507f50726f6a656374206973206e6f742066756e64656420796574000000000000006000830152602082019050919050565b60006114f3603083611bc4565b91507f54686520646561646c696e6520666f722066756e64696e67207468697320707260008301527f6f6a6563742068617320706173736564000000000000000000000000000000006020830152604082019050919050565b6000611559602883611bc4565b91507f50726f6a656374206d75737420626520636c6f73656420746f2077697468647260008301527f61772066756e64730000000000000000000000000000000000000000000000006020830152604082019050919050565b60006115bf601e83611bc4565b91507f476f616c206d7573742062652067726561746572207468616e207a65726f00006000830152602082019050919050565b60006115ff602283611bc4565b91507f4475726174696f6e206d7573742062652067726561746572207468616e207a6560008301527f726f0000000000000000000000000000000000000000000000000000000000006020830152604082019050919050565b6000611665602983611bc4565b91507f4f6e6c792070726f6a656374206f776e65722063616e2063616c6c207468697360008301527f2066756e6374696f6e00000000000000000000000000000000000000000000006020830152604082019050919050565b60006116cb602683611bc4565b91507f436f6e747269627574696f6e206d75737420626520677265617465722074686160008301527f6e207a65726f00000000000000000000000000000000000000000000000000006020830152604082019050919050565b6000611731601983611bc4565b91507f50726f6a65637420697320616c726561647920636c6f736564000000000000006000830152602082019050919050565b6000611771601683611bc4565b91507f50726f6a65637420646f6573206e6f74206578697374000000000000000000006000830152602082019050919050565b6117ad81611d09565b82525050565b60006101408201905081810360008301526117ce818d61146d565b905081810360208301526117e2818c61146d565b905081810360408301526117f6818b61146d565b9050818103606083015261180a818a61146d565b90506118196080830189611440565b61182660a08301886117a4565b61183360c08301876117a4565b61184060e08301866117a4565b61184e61010083018561145e565b61185c61012083018461145e565b9b9a5050505050505050505050565b6000610140820190508181036000830152611886818d61146d565b9050818103602083015261189a818c61146d565b905081810360408301526118ae818b61146d565b905081810360608301526118c2818a61146d565b90506118d1608083018961144f565b6118de60a08301886117a4565b6118eb60c08301876117a4565b6118f860e08301866117a4565b61190661010083018561145e565b61191461012083018461145e565b9b9a5050505050505050505050565b6000602082019050818103600083015261193c816114a6565b9050919050565b6000602082019050818103600083015261195c816114e6565b9050919050565b6000602082019050818103600083015261197c8161154c565b9050919050565b6000602082019050818103600083015261199c816115b2565b9050919050565b600060208201905081810360008301526119bc816115f2565b9050919050565b600060208201905081810360008301526119dc81611658565b9050919050565b600060208201905081810360008301526119fc816116be565b9050919050565b60006020820190508181036000830152611a1c81611724565b9050919050565b60006020820190508181036000830152611a3c81611764565b9050919050565b6000602082019050611a5860008301846117a4565b92915050565b6000606082019050611a7360008301866117a4565b611a80602083018561144f565b611a8d60408301846117a4565b949350505050565b6000604082019050611aaa60008301856117a4565b611ab7602083018461145e565b9392505050565b600061010082019050611ad4600083018b6117a4565b8181036020830152611ae6818a61146d565b90508181036040830152611afa818961146d565b90508181036060830152611b0e818861146d565b90508181036080830152611b22818761146d565b9050611b3160a083018661144f565b611b3e60c08301856117a4565b611b4b60e08301846117a4565b9998505050505050505050565b6000604051905081810181811067ffffffffffffffff82111715611b7f57611b7e611de5565b5b8060405250919050565b600067ffffffffffffffff821115611ba457611ba3611de5565b5b601f19601f8301169050602081019050919050565b600081519050919050565b600082825260208201905092915050565b6000611be082611d09565b9150611beb83611d09565b9250827fffffffffffffffffffffffffffffffffffffffffffffffffffffffffffffffff03821115611c2057611c1f611d87565b5b828201905092915050565b6000611c3682611d09565b9150611c4183611d09565b9250817fffffffffffffffffffffffffffffffffffffffffffffffffffffffffffffffff0483118215151615611c7a57611c79611d87565b5b828202905092915050565b6000611c9082611d09565b9150611c9b83611d09565b925082821015611cae57611cad611d87565b5b828203905092915050565b6000611cc482611ce9565b9050919050565b6000611cd682611ce9565b9050919050565b60008115159050919050565b600073ffffffffffffffffffffffffffffffffffffffff82169050919050565b6000819050919050565b82818337600083830152505050565b60005b83811015611d40578082015181840152602081019050611d25565b83811115611d4f576000848401525b50505050565b60006002820490506001821680611d6d57607f821691505b60208210811415611d8157611d80611db6565b5b50919050565b7f4e487b7100000000000000000000000000000000000000000000000000000000600052601160045260246000fd5b7f4e487b7100000000000000000000000000000000000000000000000000000000600052602260045260246000fd5b7f4e487b7100000000000000000000000000000000000000000000000000000000600052604160045260246000fd5b6000601f19601f8301169050919050565b611e2e81611cb9565b8114611e3957600080fd5b50565b611e4581611d09565b8114611e5057600080fd5b5056fea264697066735822122041e20637708389acedb03ef250fa06866a232038325b7ad412dfbcfb5899885764736f6c63430008000033",
  "immutableReferences": {},
  "source": "// SPDX-License-Identifier: MIT\npragma solidity ^0.8.0;\n\ncontract CrowdFundingProject {\n    struct Project {\n        string name;\n        string category;\n        string description;\n        string imageUrl;\n        address payable owner;\n        uint256 goal;\n        uint256 amountRaised;\n        uint256 deadline;\n        bool isFunded;\n        bool isClosed;\n    }\n\n    Project[] public projects;\n    mapping(uint256 => mapping(address => uint256)) public contributions;\n\n    event ProjectCreated(\n        uint256 projectId,\n        string name,\n        string category,\n        string description,\n        string imageUrl,\n        address owner,\n        uint256 goal,\n        uint256 deadline\n    );\n\n    event Funded(uint256 projectId, address contributor, uint256 amount);\n    event ProjectClosed(uint256 projectId, bool isFunded);\n\n    modifier onlyOwner(uint256 _projectId) {\n        require(msg.sender == projects[_projectId].owner, \"Only project owner can call this function\");\n        _;\n    }\n\n    modifier projectExists(uint256 _projectId) {\n        require(_projectId < projects.length, \"Project does not exist\");\n        _;\n    }\n\n    modifier notClosed(uint256 _projectId) {\n        require(!projects[_projectId].isClosed, \"Project is already closed\");\n        _;\n    }\n\n    function createProject(\n        string memory _name,\n        string memory _category,\n        string memory _description,\n        string memory _imageUrl,\n        uint256 _goal,\n        uint256 _durationInDays\n    ) public {\n        require(_goal > 0, \"Goal must be greater than zero\");\n        require(_durationInDays > 0, \"Duration must be greater than zero\");\n\n        uint256 deadline = block.timestamp + (_durationInDays * 1 days);\n        \n        projects.push(Project({\n            name: _name,\n            category: _category,\n            description: _description,\n            imageUrl: _imageUrl,\n            owner: payable(msg.sender),\n            goal: _goal,\n            amountRaised: 0,\n            deadline: deadline,\n            isFunded: false,\n            isClosed: false\n        }));\n\n        emit ProjectCreated(projects.length - 1, _name, _category, _description, _imageUrl, msg.sender, _goal, deadline);\n    }\n\n    function fundProject(uint256 _projectId) public payable projectExists(_projectId) notClosed(_projectId) {\n        Project storage project = projects[_projectId];\n\n        require(msg.value > 0, \"Contribution must be greater than zero\");\n        require(block.timestamp < project.deadline, \"The deadline for funding this project has passed\");\n\n        project.amountRaised += msg.value;\n        contributions[_projectId][msg.sender] += msg.value;\n\n        emit Funded(_projectId, msg.sender, msg.value);\n\n        if (project.amountRaised >= project.goal) {\n            project.isFunded = true;\n            closeProject(_projectId);\n        }\n    }\n\n    function closeProject(uint256 _projectId) internal projectExists(_projectId) {\n        Project storage project = projects[_projectId];\n        project.isClosed = true;\n        emit ProjectClosed(_projectId, project.isFunded);\n    }\n\n    function withdrawFunds(uint256 _projectId) public onlyOwner(_projectId) projectExists(_projectId) {\n        Project storage project = projects[_projectId];\n        require(project.isFunded, \"Project is not funded yet\");\n        require(project.isClosed, \"Project must be closed to withdraw funds\");\n\n        uint256 amount = project.amountRaised;\n        project.amountRaised = 0;\n        project.owner.transfer(amount);\n    }\n\n    function getProjectDetails(uint256 _projectId) public view projectExists(_projectId) returns (\n        string memory, string memory, string memory, string memory, address, uint256, uint256, uint256, bool, bool\n    ) {\n        Project storage project = projects[_projectId];\n        return (\n            project.name,\n            project.category,\n            project.description,\n            project.imageUrl,\n            project.owner,\n            project.goal,\n            project.amountRaised,\n            project.deadline,\n            project.isFunded,\n            project.isClosed\n        );\n    }\n\n    function getContribution(uint256 _projectId, address _contributor) public view projectExists(_projectId) returns (uint256) {\n        return contributions[_projectId][_contributor];\n    }\n}\n",
  "sourcePath": "/Users/mac/Desktop/programs/study/xrpl_client_node/contracts/CrowdFundingProject.sol",
  "compiler": {
    "name": "solc",
    "version": "0.8.0+commit.c7dfd78e.Emscripten.clang"
  },
  "schemaVersion": "3.4.16",
  "updatedAt": "2024-08-31T10:49:24.356Z",
  "networkType": "ethereum",
  "devdoc": {
    "kind": "dev",
    "methods": {},
    "version": 1
  },
  "userdoc": {
    "kind": "user",
    "methods": {},
    "version": 1
  }
}